:020000040800F2
:10000000A80F0020A1010008752F0008692800082A
:100010005D2E0008C50700082D3D00080000000007
:100020000000000000000000000000008D36000805
:10003000D50B0008000000001D320008E53600085E
:10004000BB010008BB010008BB010008BB010008A0
:10005000BB010008BB010008BB010008BB01000890
:10006000BB010008BB010008BB010008BB01000880
:10007000BB010008BB010008BB010008BB01000870
:100080004D0B0008BB010008BB010008BB010008C4
:10009000BB010008BB010008BB010008BB01000850
:1000A000BB010008BB010008BB010008BB01000840
:1000B000BB010008BB010008BB010008BB01000830
:1000C000BB010008BB010008BB010008BB01000820
:1000D000BB010008093D0008153D0008213D00084E
:1000E000BB010008BB010008BB010008BB01000800
:1000F000A93700088D370008BB010008BB010008C4
:10010000BB010008BB010008BB010008BB010008DF
:10011000BB010008BB010008BB010008BB010008CF
:10012000BB010008BB010008BB010008BB010008BF
:10013000BB010008BB010008BB010008BB010008AF
:10014000BB010008BB010008BB010008BB0100089F
:10015000BB010008BB010008BB010008BB0100088F
:10016000BB010008BB010008BB010008BB0100087F
:10017000BB010008BB010008BB0100080000000033
:10018000BB010008BB010008DFF810D000F0D8FA6E
:1001900000480047C14C0008AFF30080A80F0020C2
:1001A0000648804706480047FEE7FEE7FEE7FEE711
:1001B000FEE7FEE7FEE7FEE7FEE7FEE77D37000825
:1001C000890100082DE9F05F0546002092469B4614
:1001D00088460646814640241BE02846414647465D
:1001E000224600F0FAF853465A46C01A914110D3FD
:1001F00011461846224600F0E1F82D1A67EB010877
:100200004F4622460120002100F0D8F817EB0009E4
:100210004E41201EA4F10104DFDC484631462A4647
:100220004346BDE8F09FD2B201E000F8012B491E21
:10023000FBD270470022F6E710B513460A46044683
:100240001946FFF7F0FF204610BD421C10F8011BB5
:100250000029FBD1801A70472DE9FE4F81EA030483
:1002600004F0004421F0004100944FF0000B23F013
:10027000004350EA01045ED052EA03045BD0C3F3AA
:100280000A54C1F30A552C44A4F2F3340194A0FBA0
:100290000254C1F3130141F48011C3F3130343F477
:1002A000801301FB024400FB034E840A970A44EAD0
:1002B000815447EA8357A4FB076802958D0A05FB22
:1002C00007854FEA932C04FB0C542705029D4FEA47
:1002D000065847EA1637B5EB08056EEB070C870E94
:1002E000920E47EA811742EA8312A7FB0201B6EB9E
:1002F0000B0164EB00042B0D43EA0C335E1844EB56
:100300001C50DA465146E7FB0201C5F313044FEADD
:100310000B3343EA14534FEA0432019C43EA0603C9
:10032000A4F10C040294009CCDE900B400F074F830
:1003300003B0BDE8F08F00200146F9E70EB5C10F0C
:1003400080EAE0700844CA07002140F233438DE898
:100350000E000A460B4600F05FF803B000BD000037
:1003600030B5041E71F1000404DB4FF0004440423C
:1003700064EB0101141E73F1000405DB1C464FF011
:100380000043524263EB04038B4208BF824230BDFC
:1003900030B50B46014600202022012409E021FA55
:1003A00002F59D4205D303FA02F5491B04FA02F552
:1003B0002844151EA2F10102F1DC30BD202A04DB25
:1003C000203A00FA02F1002070479140C2F1200368
:1003D00020FA03F3194390407047202A04DB203AA7
:1003E00021FA02F00021704721FA02F3D040C2F155
:1003F0002002914008431946704710B5141E73F14E
:10040000000408DA401C41F1000192185B411A43D4
:1004100001D120F0010010BD2DE9F04D92469B4620
:1004200011B1B1FA81F202E0B0FA80F220329046C6
:10043000FFF7C4FF04460F4640EA0A0041EA0B01F9
:1004400053465A46084313D0114653EA010019D0C7
:10045000C8F140025046FFF7C0FF05460E46504621
:1004600059464246FFF7AAFF084305D0012004E0A1
:1004700020463946BDE8F08D0020054346EAE07687
:100480002C4337430A986305E40AA0EB08000022D6
:10049000FD0A44EA47540A3002D500200146E9E744
:1004A000010510196941DDE9084500196941BDE8F8
:1004B000F04DA2E72DE9FE4F804681EA0300C00F10
:1004C0000C46009021F0004123F00045B8EB0200FB
:1004D000A94105D24046214690461C460B4602469D
:1004E00023F00040104347D0270DC7F30A00C3F3A1
:1004F0000A510290401A019040286BDAC3F31300AE
:1005000040F4801B0098924620B10023D2EB030AEE
:1005100063EB0B0B01985946C0F140025046FFF7C0
:100520004DFF06460D4650465946019A00F01AF90D
:1005300010EB08006141002487EA115284EAE77356
:100540001A4340D0009A62B3019A012A4FEA075237
:1005500015DC001B61EB02014FF0004202EA07527A
:10056000CDE90042001C41F5801132462B46FFF7D1
:1005700053FF03B0BDE8F08F40462146F9E7001B6A
:1005800061EB0201001C41F5801300185B4120184B
:10059000A2F5001747EB030140EAD570B6196D418B
:1005A00011E06D084FEA360645EAC0754FEA07527A
:1005B000001B61EB0201001C41F5801149084FEA64
:1005C00030000019514132462B4603B0BDE8F04FD0
:1005D000FFF713BF0098012240000023D0EB020276
:1005E00063EBE073009821464FEAE074B8EB00003B
:1005F00061EB0401E9E783F000435BE781F0004130
:1006000058E72DE9F04D81EA030404F0004B21F096
:10061000004514464FF0000A23F0004150EA05025D
:1006200020D054EA01021DD0C5F30A570246C5F393
:100630001303C1F31300C1F30A5640F4801543F4C9
:100640008013A7EB0608101BD64608F2FD3873EBA3
:10065000050002D308F1010801E092185B41B8F1EE
:10066000000F03DA00200146BDE8F08D00204FF4B2
:100670008011064684460EE0171B73EB050705D371
:10068000121B63EB050306434CEA010C49084FEAD1
:10069000300092185B4150EA0107EDD152EA0300A5
:1006A00012D082EA040083EA0501084305D0101B3A
:1006B000AB4106D20122002306E000224FF00043A6
:1006C00002E06FF0010253101AEB06004CEB0851E8
:1006D00010EB0A0041EB0B01BDE8F04DFFF78DBEBA
:1006E000C1F30A52C1F3130140F2FF3341F4801108
:1006F0009A4202DA00200146704740F233439A42A0
:10070000A2F2334202DC5242FFF767BEFFF756BE49
:1007100030B5041E71F1000404DB4FF00044404288
:1007200064EB0101141E73F1000405DB1C464FF05D
:100730000043524263EB0403994208BF904230BD2C
:10074000064C074D06E0E06840F0010394E807001E
:1007500098471034AC42F6D3FFF71AFD185400083E
:1007600038540008202A06DBCB17203A41FA02F061
:1007700043EAE07306E041FA02F3D040C2F12002FE
:10078000914008431946704710B50848016808A011
:1007900003F0FEFD0748016807A003F0F9FD0748D4
:1007A0000168BDE8104006A003F0F2BD5C00002027
:1007B0004D256400600000204E25640030000020BC
:1007C0004A256400FEE7000008490968084400EE75
:1007D000100A0749B8EEC00A81ED000A00EE100ABF
:1007E0000448B8EEC00A80ED000A70478800002077
:1007F00008080020280800200B4910B591ED000AD8
:100800000A49F8EEC00AB8EEC00AC1ED000A08496C
:1008100081ED000A00F076FB00F04EF9BDE81040D3
:100820000A2000F06FBB00008800002008080020AC
:10083000280800200B4810B590ED000A0A49F8EE90
:10084000C00AB8EEC00AC1ED000A084981ED000AED
:10085000006900F057FB00F02FF9BDE810400A20B6
:1008600000F050BB88000020080800202808002065
:1008700009490A4A086800EE100AB8EEC00A82ED7B
:10088000000AC968084400EE100A0548B8EEC00A1C
:1008900080ED000A70470000880000200808002052
:1008A0002808002009490A4A086800EE100AB8EE34
:1008B000C00A82ED000A8968084400EE100A054863
:1008C000B8EEC00A80ED000A7047000088000020E2
:1008D000080800202808002009490A4A086800EE94
:1008E000100AB8EEC00A82ED000A4968084400EE1A
:1008F000100A0548B8EEC00A80ED000A70470000F3
:1009000088000020080800202808002009490868FD
:10091000C968014400EE101A0749B8EEC00A81ED1B
:10092000000A00EE100A0548B8EEC00A80ED000A81
:1009300070470000880000200808002028080020D8
:10094000094908688968014400EE101A0749B8EEA1
:10095000C00A81ED000A00EE100A0548B8EEC00A90
:1009600080ED000A70470000880000200808002081
:10097000280800200949D1E90001014400EE101ABD
:100980000749B8EEC00A81ED000A00EE100A0548DA
:10099000B8EEC00A80ED000A704700008800002011
:1009A00008080020280800200D4910B509684A42AF
:1009B00000EE102A0B4AB8EEC00A82ED000A00EEE3
:1009C000101A0949B8EEC00A81ED000A00F09AFA3F
:1009D00000F072F8BDE81040142000F093BA000057
:1009E0008800002008080020280800200D4910B5C4
:1009F00009684A4200EE102A0B4AB8EEC00A82ED9E
:100A0000000A00EE101A0949B8EEC00A81ED000A8A
:100A100000F078FA00F050F8BDE81040142000F023
:100A200071BA000088000020080800202808002073
:100A30000D4910B509680D4A00EE101A4942B8EE8A
:100A4000C00A82ED000A00EE101A0949B8EEC00A89
:100A500081ED000A00F056FA00F02EF8BDE81040D3
:100A6000142000F04FBA0000880000200808002081
:100A7000280800200D4910B509680D4A00EE101A2B
:100A80004942C838B8EEC00A82ED000A00EE101ADA
:100A90000849B8EEC00A81ED000A00F033FA00F010
:100AA0000BF8BDE81040142000F02CBA880000209C
:100AB000080800202808002007499FED060A07487B
:100AC00081ED000A80ED000A81ED040A80ED040A40
:100AD00070470000000000000808002028080020DF
:100AE00013480268134801680B46C91C9B1C32B1AD
:100AF000012A13D0022A13D0032A14D10EE00E4A81
:100B00001268002AF4D10D49096861B10322012954
:100B100008D0022902D0032905D103E0016002E0D8
:100B2000036000E00260016805A004F035BC00002D
:100B30000C000020280000200800002004000020F5
:100B4000636F696E3D2564FFFFFF0000014800F000
:100B50009FB800005C02002001681823CAB2103A56
:100B6000B2FBF3F2054B6FF30901032A9B5CC365EB
:100B700000D9091D8165084670470000F853000838
:100B800010B5014600208B698A6A4FF0C07453B1DA
:100B9000B3F5005F15D072B1012A0CD0022A0AD039
:100BA000032A09D104E01AB1012A06D0022A03D18E
:100BB000C96AC90100D5012010BDC96AA142FAD095
:100BC00010BD002AF7D0012AF2D0022AF3D0032A5E
:100BD000F3D010BD704772B6FEE72DE9F041044630
:100BE000876D00F09BFA054694F835000026022830
:100BF00006D08020606584F834600120BDE8F08173
:100C00002068016821F0160101602068416921F027
:100C100080014161206C08B9A06C20B12068016896
:100C200021F0080101602068016821F001010160E4
:100C30000CE000F073FA401B052807D920206065FE
:100C4000032084F8350084F83460D7E72068006812
:100C5000C007EED194F85C103F208840B8600120B6
:100C600084F8350084F834600020C7E790F8351028
:100C7000022903D08021416501207047052180F8B9
:100C800035100068016821F0010101600020704703
:100C90002DE9F84304464FF00009CDF80090634871
:100CA0004FF41651A56D0068B0FBF1F72E6894F86B
:100CB0005C20082101FA02F030420FD0206802685F
:100CC00052070BD5026822F00402026094F85C001F
:100CD0008140A960606D40F00100606594F85C108F
:100CE0004FF0010808FA01F0304208D02168496944
:100CF000090604D5A860606D40F00200606594F8B4
:100D00005C1004208840304208D0216809688907B7
:100D100004D5A860606D40F00400606594F85C1034
:100D200010208840304218D021680968090714D57E
:100D3000A86020680168490304D50068000308D54D
:100D4000A16C07E00168C90503D4016821F008011E
:100D50000160216C09B12046884794F85C1020207E
:100D60008840304231D021680968C9062DD5A86075
:100D700094F8350005282068016806D0490347D556
:100D8000006800031DD4616C1CE021F016010160B5
:100D90002068416921F080014161206C08B9A06C94
:100DA00020B12068016821F00801016094F85C100E
:100DB0003F208840A86084F8358084F83490216D05
:100DC0001FE0E16B09B120468847606D00282BD0F9
:100DD000606DC00714D0052084F8350020680168D4
:100DE00021F0010101600098401C0090B84203D836
:100DF00020680068C007F6D184F8358084F8349004
:100E0000E16C002910D001B02046BDE8F04308474E
:100E10000168C905D5D4016821F01001016084F88A
:100E2000358084F83490CCE7BDE8F8838400002056
:100E30002DE9F041044600F071F905465CB102204D
:100E400084F83500002684F834602068016821F0B9
:100E5000010101600DE00120BDE8F08100F05EF9C4
:100E6000401B052805D920206065032084F8350043
:100E7000F2E720680068C007F0D121680A682048BE
:100E80000240D4E901031843D4E903352B43184346
:100E900063691843A3691843E3691843236A184335
:100EA0001043626A042A03D1D4E90B231A43104386
:100EB000086020684069656A20F0070128460D43F4
:100EC000012704280CD1A06A0543E06A40B12046FE
:100ED000FFF756FE20B14020606584F83570BAE710
:100EE000206845612046FFF737FE94F85C203F21DB
:100EF00091408160666584F835700020ACE70000A1
:100F00003F8010F070B5044600F008F90546601CFB
:100F100002D004480078044400F000F9401BA042CD
:100F2000FAD370BD780000202DE9F84FDFF89C91CE
:100F30000022A9F1040B03274FF00F0C09F1040A5A
:100F4000ABF1040E01250B6895402B40AB426ED1EE
:100F50000C7904F00304012C01D0022C15D1866811
:100F6000540007FA04F826EA0806D1F80C8008FABB
:100F700004F848EA0608C0F808804468AC430D79D4
:100F8000C5F300159540254345600C79E443A4075B
:100F900008D0C568540007FA04F6B5438E68A64029
:100FA0002E43C6600C7904F00304022C11D1D4083E
:100FB00000EB8406356A5407E40E0CFA04F825EABF
:100FC0000805D1F8108008FA04F848EA0508C6F8C0
:100FD00020800568540007FA04F6B5430E7906F040
:100FE0000306A6402E4306604C6814F4403F66D0CA
:100FF000374C256845F480452560246822F00305B8
:1010000004F480440094334C05EB0408D8F80858E5
:101010009407260F0CFA06F4A5432F4CA04201D1E9
:10102000002424E02D4CA04202D101241FE046E020
:101030002B4CA04201D1022419E02A4CA04201D13C
:10104000032414E0284CA04201D104240FE0274CD3
:10105000A04201D105240AE0254CA04201D106247A
:1010600005E0244CA04201D1072400E00824B4404C
:101070002C43C8F80848D9F800404D464E689C43B8
:10108000F60200D51C432C60DAF8004055464E6845
:101090009C43B60200D51C432C60DBF800405D4643
:1010A0004E689C43B60300D51C432C60DEF800401C
:1010B00075464E689C43F60300D51C432C60521CB9
:1010C000102AFFF43FAFBDE8F88F0000083C014054
:1010D0004438024000300140000002400004024059
:1010E00000080240000C02400010024000140240C0
:1010F00000180240001C02400069084000D0012096
:101100007047426921EA02030A4043EA02418161D1
:1011100070470AB1816170470904FBE701488068A4
:10112000704700007800002002488168027811446E
:1011300081607047780000200B4810B5016841F4C9
:1011400000710160016841F480610160016841F44F
:1011500080710160032000F06FF80F2000F006F8A6
:1011600000F024F8002010BD003C024070B50D4D89
:1011700004464FF47A712878B1FBF0F00A49096807
:10118000B1FBF0F000F000FB48B9102C07D20022B0
:101190002146501E00F030F800206C6070BD012028
:1011A00070BD000078000020840000200A4808B5C7
:1011B000016841F480410160006800F480400090C3
:1011C0000548001F016841F080510160006800F08F
:1011D0008050009008BD000044380240002809DB20
:1011E00000F01F02012191404009800000F1E02041
:1011F000C0F8001170470000F0B40E4B1B68C3F339
:101200000223C3F10704042C00D904241D1D072D5B
:1012100001D2002300E0DB1E012606FA04F56D1E54
:101220000D409D409E40761E164045EA0601F0BCEA
:1012300003F0D0B80CED00E0064A00F0070110689A
:101240004FF6FF03184040EA0120034908431060AD
:10125000704700000CED00E00000FA052DE9F047B2
:101260000D46040065D0DFF81491D9F80000EFB204
:1012700000F00700A84207D289F80070D9F80000F2
:1012800000F00700A84254D120683D4E810712D5D6
:10129000400703D5306840F4E05030602078000704
:1012A00003D5306840F4604030603068A16820F0B9
:1012B000F000084330602078C0072DD030496068C6
:1012C0000839012812D0022813D0032811D0096848
:1012D000890700292DDA316821F0030101433160CB
:1012E000FFF71CFF804641F2883A0EE00968890347
:1012F000EFE709688901ECE7FFF710FFA0EB0801B1
:10130000514502D90320BDE8F0873068616800F0DC
:101310000C00B0EB810FEFD1D9F80010484601F076
:101320000701A94207D90770006800F00700A8422A
:1013300001D00120E7E72078400705D53068E16853
:1013400020F4E050084330602078000706D530686C
:10135000216920F4604040EAC100306000F038F8B4
:101360003168084AC1F30311515CC840064908605E
:1013700006480068FFF7FAFE0020C4E7003C024080
:101380000838024000540008840000207C0000203F
:101390000448054900680968044AC1F38221515C88
:1013A000C8407047840000200838024010540008EC
:1013B0000448054900680968044AC1F34231515C98
:1013C000C8407047840000200838024010540008CC
:1013D000154810B5006810F00C01144813D04310E4
:1013E00004290FD008290ED10F4C241F216801F0C9
:1013F0003F022168490207D52068C0F38810A0FB8E
:10140000030106E0184610BD2168C1F38811A1FB55
:1014100000010023FEF7D6FE2168C1F30141491CFB
:101420004900B0FBF1F010BD083802400024F40080
:101430002DE9F84F040075D02078DFF838A3C007F5
:10144000AAF1040548D00AF104000168C1F3810142
:10145000012908D00068C0F3810002280AD1DAF817
:101460000000400206D52868800335D56068002852
:10147000E1D031E06068B0F5803F10D0B0F5A02F2A
:10148000286810D020F480302860286820F480205C
:1014900028606068A0B1FFF741FE06460CE02868AE
:1014A00040F48030F4E740F480202860F7E7FFF74D
:1014B00035FE801B642871D828688003F7D50BE0BF
:1014C000FFF72CFE064604E0FFF728FE801B642889
:1014D000F1D828688003F7D42078DFF89C92800741
:1014E0004FF0000B3DD5A348001D016811F00C0F13
:1014F00008D00068C0F3810002280AD1DAF80000A1
:10150000400206D42868800715D5E068012809D173
:1015100011E0E068B8B10120C9F80000FFF7FEFD56
:10152000064605E022E1FFF7F9FD801B0228C2D83C
:1015300028688007F7D52868216920F0F80040EA7C
:10154000C10028600DE0C9F800B0FFF7E7FD0646CE
:1015500004E0FFF7E3FD801B02281FD828688007FE
:10156000F7D42078000722D5824F8448616970370C
:1015700071B101210160FFF7D1FD064604E0FFF7DC
:10158000CDFD801B022809D838688007F7D50EE00A
:10159000C0F800B0FFF7C2FD064605E082E0FFF7A5
:1015A000BDFD801B02287DD838688007F7D42078DD
:1015B000400765D56F484FF000083C300068C00018
:1015C0000BD46C483C30016841F0805101600068E8
:1015D0004FF0010800F080500090694F3868C00556
:1015E0000FD4386840F480703860FFF797FD0646E6
:1015F00004E0FFF793FD801B022853D83868C0052C
:10160000F7D55C4FA0686C3701280FD005283868E3
:1016100010D020F001003860386820F004003860F5
:10162000A068B0B1FFF77AFD06460EE0386840F0DA
:101630000100F4E740F004003860F7E7FFF76EFDC3
:10164000811B41F28830814263D838688007F5D524
:101650000DE0FFF763FD064606E0FFF75FFD811B27
:1016600041F28830814254D838688007F5D4B8F107
:10167000000F05D03F483C30016821F080510160E7
:10168000A069B8B33B49091D0968C1F3810102296A
:1016900046D00228584606D0C9F86000FFF73EFD44
:1016A000044639E035E04F46C9F86000FFF736FDE3
:1016B000064604E0FFF732FD801B022829D828687F
:1016C0008001F7D4D4E907010843A16A2D4A4908EB
:1016D00002EB0141626A41EA8211084394F82C103E
:1016E00040EA0161CAF8001001203866FFF716FDD4
:1016F000044605E03CE0FFF711FD001B022808D876
:1017000028688001F7D533E0FFF708FD001B0228A9
:1017100002D90320BDE8F88F28688001F4D427E0BF
:101720000128F7D0DAF80000E26900F48001914264
:101730001CD1226A00F03F01914217D147F6C071D7
:10174000626A0140B1EB821F10D1A26A4FF0FF33F1
:1017500000F4403103EB5202B1EB024F06D194F892
:101760002C1000F07060B0EB016F01D00120D1E7C8
:101770000020CFE70438024000004742800E474275
:10178000007000400000FFFF10B5401EB0F1807FE8
:1017900001D3012010BD4FF0E02460610F216017DC
:1017A00002F018FE0020A06107202061002010BD7B
:1017B0007047704710B590F83C20012A22D00122D2
:1017C00080F83C20CA688C6822F4407222434C683E
:1017D00022F4806222430C6822F4006222430C69E6
:1017E00022F4805222434C6922F400522243C969F8
:1017F000002322F480420A4301684A6480F83C30A6
:10180000002010BD022010BD70B590F83C20012AC8
:1018100032D0012580F83C50022280F83D20026839
:101820005368946823F070060B6833435360134B7E
:1018300002689A4214D0B2F1804F11D0104B9A42F4
:101840000ED0104B9A420BD00F4B9A4208D00F4B40
:101850009A4205D00E4B9A4202D00E4B9A4204D1C6
:10186000496824F080031943916080F83D500021BD
:1018700080F83C10084670BD022070BD0000014099
:101880000004004000080040000C0040000401403B
:10189000004001400018004010B5040003D094F847
:1018A0003D0010B107E0012010BD002084F83C008D
:1018B000204600F01FF8022084F83D00211D20681A
:1018C00001F080FF012084F8460084F83E0084F88F
:1018D0003F0084F8400084F8410084F8420084F816
:1018E000430084F8440084F8450084F83D0000205B
:1018F00010BD000008B50068144A154990420ED189
:10190000086840F0800008600868002200F080004D
:10191000009011462C20FFF76FFC2C2010E00D4AA0
:10192000904211D1086840F4807008600868002275
:1019300000F48070009002212D20FFF75DFC2D2027
:10194000BDE80840FFF74ABC08BD0000001C00408D
:10195000403802400020004090F83D10012901D09D
:1019600001207047022180F83D100168CA6842F0EA
:101970000102CA6000681149884214D0B0F1804F5A
:1019800011D00F4988420ED00E4988420BD00E4923
:10199000884208D00D49884205D00D49884202D0BE
:1019A0000C49884204D1816801F00701062903D05F
:1019B000016841F001010160002070470000014012
:1019C0000004004000080040000C004000040140FA
:1019D00000400140001800402DE9F0410D46040090
:1019E00003D094F83D0018B108E00120BDE8F08173
:1019F000002084F83C00204600F040F8022084F8E3
:101A00003D002068816844F2070291438160211DF6
:101A1000206801F0D7FE206881688269066A2B6819
:101A2000AF690B4340F203318A4342EA0722A968B7
:101A3000EF6911434FF6FC429143EA6841EA0721FE
:101A40000A4329692F6A090141EA073111436A688B
:101A50006D6926F0AA0646EA05152A4383602068C8
:101A6000816154F8460B0262012004F81F09E075F9
:101A70002076E0762077A0750020B7E710B586B015
:101A8000044614216846FEF7D5FB2068294C002344
:101A900029490222A0421DD127481030046844F091
:101AA00004040460006800F004000590086840F039
:101AB000080008600868694600F0080005904FF4C7
:101AC00040508DE80D00CDE903321C48FFF72CFA99
:101AD00006B010BD1A4CA042FAD117481430046861
:101AE00044F002040460006800F0020005900868F9
:101AF00040F0040008600868694600F004000590A2
:101B0000C0208DE80D000320CDE903300D48FFF71C
:101B10000BFA002211462C20FFF76EFB2C20FFF75A
:101B20005DFB002202212D20FFF766FB2D20FFF731
:101B300055FBCDE70008004030380240000C024061
:101B4000000401400008024070B590F83E50044681
:101B500090F83F3090F8422090F84300022621B1DF
:101B600004290BD0012D16D10FE0012D13D1012A2C
:101B700011D184F83E6084F8426016E0012B0AD14E
:101B8000012808D184F83F600DE0012B03D1012A20
:101B900001D1012801D0012070BD84F83E6084F895
:101BA0003F6084F8426084F8436091B1042904D016
:101BB00001220021206801F069FE01220421206831
:101BC00001F064FE2068016841F00101016000201D
:101BD00070BD012200212068F2E7704770B504460D
:101BE000006801694FF00005C943890715D4C16831
:101BF000C943890711D4E91E0161012020772068BB
:101C000080698007204602D0FFF7E7FF04E000F07C
:101C1000D7F8204600F0AAF9257720680169C94362
:101C2000490717D4C168C943490713D46FF00401A9
:101C30000161022020772068806910F4407F2046EF
:101C400002D0FFF7CAFF04E000F0BAF8204600F027
:101C50008DF9257720680169C943090716D4C16841
:101C6000C943090712D46FF00801016104202077ED
:101C70002068C0698007204602D0FFF7AEFF04E06D
:101C800000F09EF8204600F071F925772068016980
:101C9000C943C90617D4C168C943C90613D46FF034
:101CA00010010161082020772068C06910F4407F8E
:101CB000204602D0FFF791FF04E000F081F82046B3
:101CC00000F054F9257720680169C943C90708D194
:101CD000C168C943C90704D1891E0161204600F0CB
:101CE000AFF920680169C943090609D4C168C9432D
:101CF000090605D46FF0800101612046FFF758FD09
:101D000020680169C943490609D4C168C943490625
:101D100005D46FF040010161204600F009FA206807
:101D20000169C94389060BD4C168C943890607D430
:101D30006FF0200101612046BDE87040FFF739BD1A
:101D400070BD000030B587B0044614216846FEF728
:101D500071FA174D20680022164902230124A84277
:101D60000FD1086840F0100008600868694600F06C
:101D7000100005904FF4D4400090CDE901320E4898
:101D800010E0B0F1804F11D1086840F00100086008
:101D90000868694600F00100059020200090CDE918
:101DA00001320648CDE90324FFF7BEF807B030BD85
:101DB00000000140303802400010024000000240A4
:101DC000704770B5044690F83C0000260D46012887
:101DD0000FD0012084F83C006AB1042A1DD0082AE3
:101DE0002FD00C2A3FD00126002084F83C0030463A
:101DF00070BD022070BD206801F056FD2068816929
:101E000041F0080181612068816921F0040181614C
:101E1000206881692A69114311E0206801F074FD8E
:101E20002068816941F4006181612068816921F441
:101E300080618161206881692A6941EA02218161AA
:101E4000D2E7206801F096FD2068C16941F00801E1
:101E5000C1612068C16921F00401C1612068C169C4
:101E60002A69114311E0206801F0B8FD2068C169BA
:101E700041F40061C1612068C16921F48061C161E0
:101E80002068C1692A6941EA0221C161ACE710B545
:101E9000040003D094F83D0010B107E0012010BD0C
:101EA000002084F83C00204600F01EF8022084F850
:101EB0003D00211D206801F085FC012084F84600CA
:101EC00084F83E0084F83F0084F8400084F8410024
:101ED00084F8420084F8430084F8440084F8450004
:101EE00084F83D00002010BD38B5054600681B4A47
:101EF0000021904209D11A48016841F001010160B6
:101F0000006800F00100009038BDB0F1804FFBD1B7
:101F10001348001F026842F0010202600068124C80
:101F200000F0010000900F4820604FF0C06060603A
:101F30004020C4E90201000120618000606180004E
:101F4000A0618011C4E9070120466162FEF770FFBD
:101F500008B1FEF740FE6C62A56338BD0000014089
:101F600044380240886002405C0200207047000054
:101F700010B5044649B104290AD008290BD094F8B9
:101F8000410001280AD0012010BD94F83E00F8E776
:101F900094F83F00F5E794F84000F2E70220B1B36F
:101FA000042938D0082939D084F84100012220685A
:101FB00001F06CFC1B4920681B4A884201D090420A
:101FC00003D1436C43F4004343642068884213D038
:101FD000B0F1804F10D0154988420DD01449884285
:101FE0000AD01449884207D0904205D0124988424D
:101FF00002D01249884204D1816801F00701062904
:1020000003D0016841F001010160002010BDFFE72D
:1020100084F83E00CAE784F83F00C7E784F8400030
:10202000C4E700000000014000040140000400403B
:1020300000080040000C0040004001400018004033
:1020400070B53249324C884202D12169491C216164
:102050003049884258D16068401C0A2690FBF6F14E
:10206000606006FB110018B901F010F92A490860F8
:102070006068002590FBF6F106FB110151B9274974
:1020800009684A6A2280264A13685B6A63804D6247
:1020900011684D6290FBF6F106FB1100F8B9B4F936
:1020A000000000EE100A1F48B8EEC00A01F068F800
:1020B000BDEEC00A84ED030AB4F9020000EE100A76
:1020C0001948B8EEC00A01F05BF8BDEEC00A84ED15
:1020D000020AE06800F0C4FEA06800F007FF606834
:1020E000322190FBF1F201FB120111B90F4A0121DB
:1020F000116040F6B83190FBF1F201FB12000028AC
:1021000002D1FEF741FB656070BD0000CC010020EC
:102110006400002014020020100000203C01002078
:10212000840100200808002028080020200000204A
:102130007047704770470000F8B5016804460868AA
:10214000CA684B6910F00F0F4FF0000559D003F02B
:10215000010602F49077374365D0C10705D0D10559
:1021600003D5216C41F001012164410705D5D90750
:1021700003D0216C41F002012164810705D5D90704
:1021800003D0216C41F004012164010707D502F05E
:102190002001314303D0216C41F008012164216CFE
:1021A00000293AD0800604D5900602D5204601F0D9
:1021B0006CFC20684069216CC0F38010090700D4D2
:1021C00060B3204601F03AFC20684069400621D502
:1021D0002068143050E8001F21F0400140E8001250
:1021E000002AF5D1A06BA8B16C490165A06BFEF780
:1021F0003DFD002811D0A06B016D01B0BDE8F0409D
:10220000084783060FD593060DD52046BDE8F84054
:1022100001F03BBC2046FFF78DFFF8BD2046FFF7DD
:1022200089FF2564F8BD266B2023012E79D1C606CF
:1022300077D5D60675D50868486800904869400685
:1022400040D5A16B086840680004000CEAD0A28D5C
:102250008242E7D9E085C869B0F5807F2DD020683B
:102260000C3050E8001F21F4807140E80012002A71
:10227000F5D12068143050E8001F21F0010140E83A
:102280000012002AF5D12068143050E8001F21F018
:10229000400140E80012002AF5D184F83E30256361
:1022A00020680C3050E8001F21F0100140E80012B7
:1022B000002AF5D1A06BFEF790FCA08DE18D401AAD
:1022C00081B229E0A08DE18D401A81B2E08D002815
:1022D000A8D00029A6D020680C3050E8002F22F4A6
:1022E000907240E80026002EF5D12068143050E8A6
:1022F000002F22F0010240E80026002EF5D184F8DC
:102300003E30256320680C3050E8002F22F0100288
:1023100040E80023002BF5D12046FFF70AFFF8BD67
:10232000FFE705062BD5150629D594F83D00212891
:10233000F5D1A068B0F5805F01D12069B0B1206A05
:10234000411C2162216800784860E08C401E000436
:10235000000CE084E3D12068C16821F08001C160F5
:102360002068C16841F04001C160D8E7206A008858
:10237000C0F308004860206A801C2062E5E7400640
:10238000CDD55006CBD5CA68204622F04002CA609F
:1023900084F83D3000F0E0F9C1E700002D3A000874
:1023A00070B5040004D094F83D00002510B106E09B
:1023B000012070BD84F83C50204600F023F8242012
:1023C00084F83D002068C16821F40051C1602046B6
:1023D00001F0BCFB2068016921F490410161206893
:1023E000416921F02A0141612068C16841F400512E
:1023F000C1602564202084F83D0084F83E00002060
:1024000070BD0000F0B587B0044614216846FDF7A2
:1024100011FF3E4B216800243D4A02250326072771
:102420003C48994221D13A4914310B6843F01003DA
:102430000B60096801F010010591116841F001017C
:102440001160116802AB01F0010105917102CDE943
:10245000001583E8D0006946FEF766FD00221146AC
:102460002520FEF7C9FE252025E0294BDFF8A8C06E
:102470001033614523D1196841F40031196019689E
:1024800001F400310591116841F0010111601168FA
:102490000DF1080C01F0010105910C21CDE90015A9
:1024A0008CE8D0006946FEF73FFD00221146262049
:1024B000FEF7A2FE2620FEF791FE07B0F0BD1748FA
:1024C0008142FAD1186840F480201860186800F43E
:1024D00080200590106840F00200106010680DF137
:1024E000080C00F0020005904FF44060CDE90005B3
:1024F0008CE8D00069460A48FEF716FD0022114616
:102500002720FEF779FE2720D5E7000000100140C4
:1025100030380240000002400044004000480040C3
:102520000004024090F83E30202B0ED159B152B138
:1025300090F83C30012B08D0012380F83C30002378
:10254000036301F089BB012070470220704700003F
:102550002DE9F0410446006849490C260027494D01
:10256000884227D1A88801041FD42946464B8A886F
:1025700009785FEA404CC2F30D020CD50C2907D054
:1025800023F81260521C23F81210521CAA800CE08F
:1025900040F4004026E00B2922D0401C80B223F8F2
:1025A0001210A880632800D9AF800122354937482E
:1025B000FFF7B8FF3648216881422AD128890104F3
:1025C00021D44104334AA97811D50C290CD0C0F389
:1025D0000D0022F81060401C22F81010401C30E062
:1025E00040F48040A880E0E740F4004029E00B2957
:1025F00025D0C0F30D03401C80B222F813102881AF
:10260000632800D92F811F490122891C2248FFF726
:1026100089FF22492068884230D1E888010421D40A
:1026200041041F4A697811D50C290CD0C0F30D0064
:1026300022F81060401C22F81010401C1CE040F4EE
:1026400080402881DFE740F4004015E00B2911D0DD
:10265000C0F30D03401C80B222F81310E8806328F9
:1026600000D9EF80BDE8F04106490122491C0D4820
:10267000FFF758BF40F48040E880F3E7BDE8F08101
:10268000001001409C00002088080020BC020020AF
:1026900000440040E00A0020000300200048004001
:1026A000B4090020440300202DE9F843044690F8C3
:1026B0003D001F4615460E4620284BD1C6B1BDB180
:1026C00094F83C00012845D0012084F83C004FF0EC
:1026D0000008C4F84080212084F83D00FEF71EFD6C
:1026E000A5848146E584A068B0F5805F03D004E04E
:1026F0000120BDE8F883206920B13546002684F822
:102700003C800EE00025FAE78021204601F0C1FA66
:10271000A0B9ADB115F8010B21684860E08C401EEE
:10272000E084E08C4B464FF0000200970028EBD18C
:102730004FF04001204601F0ACFA30B10320D8E759
:1027400036F8020BC0F30800E6E7202084F83D00CD
:102750000020CEE70220CCE77047000001A002F085
:102760001BBE000070616765207061676531FFFF07
:10277000FF00000001A002F00FBE0000706167655D
:10278000207061676533FFFFFF00000001A002F0C9
:1027900003BE000070616765207061676530FFFFF0
:1027A000FF0000002DE9F0411B4D2888000430D5C2
:1027B0004FF400511948FEF7A4FC1949194A1A4B65
:1027C00008881A4E1A4F0024582802D051280DD0DC
:1027D0001EE0488830381060888830381860C88813
:1027E0003038306008893038386011E04888302847
:1027F00002D0312807D00BE00E4804603C60146022
:102800001C60346004E00C490120086000F0A2FE66
:102810002C80BDE8F0810000A400002000080240E8
:10282000E00A002004000020080000200C00002026
:1028300028000020240000202C000020014601A0D8
:1028400002F0AABD7061676520782564FFFFFF0074
:10285000014601A002F0A0BD706167652078256483
:102860005F73FFFFFF000000FEE7000070B501226C
:102870000E4D140221462846FEF74BFC012256025B
:1028800031462846FEF745FC00F048F80022214674
:102890002846FEF73EFC00F041F80022314628466B
:1028A000FEF737FCBDE8704000F038B80014024075
:1028B00070B50B4D4FF48074002221462846FEF778
:1028C00028FC012251022846FEF723FC00F026F8DE
:1028D00021462846BDE870400122FEF71ABC0000E0
:1028E0000014024070B50C4C012211022046FEF784
:1028F00010FC00F013F80122550229462046FEF78D
:1029000008FC00F00BF8002229462046FEF701FCE7
:10291000BDE8704000F002B8001402400A20401EDA
:10292000C0B2FCD270470000094808B5016841F404
:10293000001101600068002200F4001000901146B0
:102940001020FEF759FCBDE808401020FEF746BCF9
:10295000303802402DE9F04F87B014216846FDF76A
:1029600069FC6C480024016841F0040101600168C1
:1029700001F004010591016841F020010160016846
:1029800001F020010591016841F0800101600168BA
:1029900001F080010591016841F0010101600168C9
:1029A00001F001010591016841F010010160016829
:1029B00001F010010591016841F002010160016818
:1029C00001F002010591016841F008010160016810
:1029D00001F008010591016841F0400101600068C3
:1029E000DFF8349100F040004FF4005505900022CC
:1029F00029464846FEF78DFBDFF820A14FF4C64676
:102A0000012231465046FEF784FBDFF814B1EF1087
:102A1000002239465846FEF77CFB01224FF4104154
:102A20005846FEF776FB4FF40048002241463D48E9
:102A3000FEF76FFB00224FF482613B48FEF769FB13
:102A400000950125CDE90154694648460394FEF7F7
:102A50006BFA0420CDE90004694650460294FEF763
:102A600063FA78208DE8310069465046FEF75CFA3B
:102A70001120CDE900600326CDE902566946504693
:102A8000FEF752FA0820CDE9000469464846029450
:102A9000FEF74AFA4FF41440CDE90005CDE90246AD
:102AA00069465846FEF740FA3003CDE9000469460E
:102AB0001C480294FEF738FAA8038DE831006946F5
:102AC0001848FEF731FACDF800800396CDE901549D
:102AD00069461448FEF728FA4FF44F40CDE9000448
:102AE000694612480294FEF71FFA10200090CDE9C3
:102AF000015469460C480394FEF716FA00970396B2
:102B0000CDE9015469460848FEF70EFA07B0BDE862
:102B1000F08F0000303802400008024000140240EC
:102B2000001002400004024000180240000C024065
:102B30000B4810B509490160532141600021092269
:102B4000C0E90212016180218161FEF7A5FE002823
:102B500003D0BDE81040FEF73EB810BD001C004099
:102B6000CC0100200C4810B50A4901605321416096
:102B7000002140F2E732C0E9021201618021816147
:102B8000FEF78AFE002803D0BDE81040FEF723B808
:102B900010BD0000002000401402002010B592B0CB
:102BA00000240F941C2168461094FDF743FB20215C
:102BB00007A8FDF73FFB2C482A49C0E9001442F260
:102BC000CF01C0E90241046144618461FFF75FF90C
:102BD00008B1FEF700F80F940FA923481094FEF7F0
:102BE00013FE08B1FDF7F7FF6020CDE90004029461
:102BF000039404940594002269461B480694FFF749
:102C0000E0F808B1FDF7E7FF042269461648FFF730
:102C1000D8F808B1FDF7DFFF082269461248FFF730
:102C2000D0F808B1FDF7D7FF0C2269460E48FFF730
:102C3000C8F808B1FDF7CFFF0794089409944FF442
:102C400000500A94CDE90B4007A907480E94FEF7FF
:102C5000B1FD08B1FDF7BFFF0348FFF773F812B0ED
:102C600010BD000000000140AC00002010B58AB08B
:102C7000002407941C2168460894FDF7DBFA1548E8
:102C80004FF08041C0E900146821C0E902410461AD
:102C90008461FFF7FCF808B1FDF79DFF079407A9D1
:102CA0000C480894FEF7B0FD08B1FDF794FF6020D2
:102CB00000905320CDE901040022694605480494A0
:102CC000FFF77FF808B1FDF786FF0248FFF73AF8F3
:102CD0000AB010BDF400002010B58CB02421684665
:102CE000FDF7A8FA00241648099414490A94C0E98B
:102CF00000144FF6FF71C0E90241046184610320B2
:102D0000CDE900040120CDE9020406210491CDE9BA
:102D10000540CDE9074169460948FEF75DFE08B167
:102D2000FDF759FF099409A905480A94FEF76CFDBF
:102D3000002801D0FDF74FFF0CB010BD0008004087
:102D40003C01002010B58CB024216846FDF772FAD2
:102D500000241748099415490A94C0E900144FF655
:102D6000FF71C0E902410461446184610320CDE93F
:102D700000040120CDE9020406210491CDE90540BB
:102D8000CDE9074169460A48FEF726FE08B1FDF77E
:102D900022FF099409A906480A94FEF735FD002888
:102DA00001D0FDF718FF0CB010BD00000004014079
:102DB000840100200C4810B50A4901604FF4E1314C
:102DC0004160002181600C22C160C0E90412816170
:102DD000C161FFF7E5FA002803D0BDE81040FDF718
:102DE000FABE10BD00100140BC0200200C4810B516
:102DF0000A4901604FF4E1314160002181600C22F9
:102E0000C160C0E904128161C161FFF7C9FA0028FD
:102E100003D0BDE81040FDF7DEBE10BD0044004009
:102E2000000300200C4810B50A4901604FF4E1315D
:102E30004160002181600C22C160C0E904128161FF
:102E4000C161FFF7ADFA002803D0BDE81040FDF7DF
:102E5000C2BE10BD0048004044030020FEE7000051
:102E60002DE9F041041E1D481D4F1E4D4FF4004634
:102E700009DA00221021FEF74CF9012231463846CA
:102E8000FEF747F917E009DD01221021FEF741F9AD
:102E9000002231463846FEF73CF915E00AD10022FF
:102EA0001021FEF736F931463846BDE8F0410022E0
:102EB000FEF72FB906DA0C48844200DA0446296886
:102EC00060420864002C06DD41F65830844200DD83
:102ED000044628680464BDE8F08100000018024040
:102EE00000100240AC000020A8E4FFFF2DE9F041F3
:102EF0001D4D1E4E041E4FF480614FF4805709DDB6
:102F000000222846FEF705F9012239462846FEF739
:102F100000F920E009DA01222846FEF7FAF800223B
:102F200039462846FEF7F5F80CE00AD1002228467B
:102F3000FEF7EFF839462846BDE8F0410022FEF7DB
:102F4000E8B806DA0A48844200DA0446316860428A
:102F50004863002C06DD41F65830844200DD04460B
:102F600030684463BDE8F08100100240AC000020EE
:102F7000A8E4FFFFFEE7000030B40021084B0A463A
:102F8000002003EBC004401CC0B262548028F8D378
:102F9000491CC9B20829F3D330BC00F079B800004D
:102FA0008803002010B50021AE2000F0A3F8002116
:102FB000084600F09FF80021102000F09BF8002147
:102FC000402000F097F80021812000F093F80021C4
:102FD000CF2000F08FF80021A12000F08BF8002115
:102FE000C82000F087F80021A62000F083F8002117
:102FF000A82000F07FF800213F2000F07BF800219E
:10300000D32000F077F80021084600F073F8002183
:10301000D52000F06FF80021802000F06BF800212F
:10302000D92000F067F80021F12000F063F80021BA
:10303000DA2000F05FF80021122000F05BF8002198
:10304000DB2000F057F80021402000F053F8002169
:10305000202000F04FF80021022000F04BF8002162
:103060008D2000F047F80021142000F043F80021E3
:10307000A42000F03FF80021A62000F03BF8FFF765
:103080007BFF0021BDE81040AF2000F033B8000006
:1030900070B5174E002505F1B000C0B2002100F058
:1030A00029F80021084600F025F80021102000F042
:1030B00021F8FFF7DBFB782000F0EAFAFFF712FCBB
:1030C000402000F0E5FAFFF70DFC002406EBC400F9
:1030D000405D00F0DDFAFFF705FC641CE4B2802CD3
:1030E000F4D3FFF7E5FB6D1CEDB2082DD3D370BD13
:1030F0008803002070B50C460546FFF7B7FB782023
:1031000000F0C6FAFFF7EEFB0CB1402000E0002013
:1031100000F0BEFAFFF7E6FB284600F0B9FAFFF729
:10312000E1FBBDE87040FFF7C3BB000013489FED13
:10313000120AF3EE0E0A80ED010A80ED000A80ED1E
:10314000020A80ED030A80ED040AC0ED050AB2EE22
:103150000E1A80ED061AF0EE001AC0ED071A2030A4
:1031600080ED010A80ED000A80ED020A80ED030A7D
:10317000103080EC040A70470000000008080020AE
:1031800080ED010A90ED001A9FED223A71EE400A9F
:10319000C0ED020AD0ED041A71EEA02AC0ED042A97
:1031A000D0ED061A83EE212AB4EEE22AF1EE10FAEF
:1031B00006D2B5EEC01AF1EE10FA01D080ED042A65
:1031C000DFED152A82EEA12AD0ED042AB4EEE22A20
:1031D000F1EE10FA06DDB5EEC01AF1EE10FA01D0EC
:1031E00080ED042A90ED051A90ED042A21EE201AB4
:1031F00001EE821AD0ED031A90ED072A70EEE11A63
:1032000002EE211A80ED011AC0ED030AB0EE410A68
:103210007047000000007A4500007AC57047000042
:10322000114810B5006800281CD11048006801281A
:1032300018D104210E48FDF75FFF002812D10D4C74
:103240004FF400512068401C20600B48FDF759FFE7
:103250000AA0216802F0A0F8BDE810404FF47A708F
:10326000FDF750BE10BD0000000000202C00002023
:10327000001402402400002000080240636F696EC1
:103280005F6E6F773D2564FFFFFF000070B5224D34
:1032900000244FF400612846FDF72EFF00B980247A
:1032A0004FF480612846FDF727FF08B944F0400439
:1032B0004FF400712846FDF71FFF08B944F02004C1
:1032C0004FF480712846FDF717FF08B944F0100449
:1032D000124E4FF400513046FDF70EFF08B944F08E
:1032E00008044FF480513046FDF706FF08B944F05A
:1032F00004044FF480412846FDF7FEFE08B944F06F
:1033000002044FF400412846FDF7F6FE08B944F0E8
:103310000104204670BD0000000C02400004024081
:1033200010B5214C08212046FDF7E6FE80B11021A2
:103330002046FDF7E1FEB0B120212046FDF7DCFE7E
:10334000E0B140212046FDF7D7FE10B3002010BDAC
:103350001420FDF7D7FD08212046FDF7CDFE0028FB
:10336000F6D0012010BD1420FDF7CCFD1021204621
:10337000FDF7C2FE0028F6D0022010BD1420FDF794
:10338000C1FD20212046FDF7B7FE0028F6D003201E
:1033900010BD1420FDF7B6FD40212046FDF7ACFE20
:1033A0000028F6D0042010BD001402402DE9F041A1
:1033B0001A480026DFF8688006601A4F01221A4C6E
:1033C000C8F80060D503294620463E60FDF7A1FEFF
:1033D0000120FDF797FD002229462046FDF799FEC2
:1033E0006D1029462046FDF787FE0028F9D03E6083
:1033F00029462046FDF780FE0028F9D13868C8F834
:103400000000FCF79BFF9FED091B53EC112BFCF711
:1034100023FF41EC100BBDE8F081000054000020B8
:10342000580000207400002000040240C3F5285C0E
:103430008FC2C53F0EB5AA2255212C208DE807006A
:103440000A460723AA2102A001F0BEFF0EBD00001C
:10345000256325632563256325632563000000003C
:103460000EB5AA2255212C208DE807000A46052317
:10347000AA2102A001F0A8FF0EBD0000256325636C
:103480002563256325632563000000000EB5AA228D
:1034900055212C208DE807000A460623AA2102A008
:1034A00001F092FF0EBD00002563256325632563AF
:1034B000256325630000000010B5FDF7FDFA0B4CF5
:1034C0002088000410D54FF400510948FDF719FE7B
:1034D00008480188582905D14088472802D1064963
:1034E000012008600020208010BD0000A200002004
:1034F00000080240B40900201C0000200EB5AA22DA
:1035000055212C208DE807000A460223AA2102A09B
:1035100001F05AFF0EBD0000256325632563256376
:1035200025632563000000000EB5AA2255212C203A
:103530008DE807000A460823AA2102A001F044FFF3
:103540000EBD000025632563256325632563256380
:10355000000000000EB5AA2255212C208DE807009E
:103560000A460923AA2102A001F02EFF0EBD000089
:10357000256325632563256325632563000000001B
:103580000EB5AA2355212C22012812D002281CD0C6
:10359000032826D10092CDE901130C235522AA213C
:1035A00010A001F011FF47F23050BDE80E40FDF7CA
:1035B000A9BC0092CDE901130A235522AA2109A032
:1035C00001F002FF46F66050EFE70092CDE90113EB
:1035D0000B235522AA2103A001F0F6FE44F6206039
:1035E000E3E70EBD25632563256325632563256316
:1035F000000000000EB5AA2255212C208DE80700FE
:103600000A460123AA2102A001F0DEFE0EBD000041
:10361000256325632563256325632563000000007A
:1036200070B5134D2888000421D54FF4005111487E
:10363000FDF767FD104800240188582916D10F496D
:10364000096899B10E490F4E0A6812B10E490A680D
:1036500062B9408830380860FDF742FA3460FDF7FF
:103660002BFA0A20FDF74EFCFFF784F82C8070BD82
:10367000A200002000080240B4090020040000203D
:1036800008000020000000200C000020704700000F
:103690002DE9F041124F002405464FF480787E1545
:1036A000280601D5012200E0002241463846FDF7F8
:1036B00030FDFFF733F9012231463846FDF729FD89
:1036C000FFF72CF9002231463846FDF722FD680647
:1036D000641C050EE4B2082CE2D3BDE8F0810000C2
:1036E00000140240FDF720BD30B593B0302168468C
:1036F000FCF7A0FD14210CA8FCF79CFD1D4800253B
:10370000016841F080510160006800F08050119024
:103710001948016841F4804101600068022400F406
:103720008040119001200390102004900094069492
:103730000820CDE90750A820CDE9090404200B900A
:103740006846FDF775FE08B172B6FEE70CA90F20BA
:1037500081E831004FF4A0500F904FF4805010904A
:1037600005210CA8FDF77AFD002801D072B6FEE70E
:1037700013B030BD4038024000700040024801687C
:1037800041F470010160704788ED00E010B5044815
:10379000FEF724FABDE810400248FEF71FBA000009
:1037A000840100201402002010B50448FEF716FA28
:1037B000BDE810400248FEF711BA00008401002065
:1037C000CC010020F0B50268254D264E264FDFF8CB
:1037D0009CC0274B4FF0804EA84209D0704507D0BF
:1037E000B04205D0B84203D0604501D0984203D121
:1037F00022F070044A682243A8421BD0704519D0B9
:10380000B04217D0B84215D0604513D0984211D0BD
:10381000184CA0420ED0184CA0420BD0174CA0421E
:1038200008D0174CA04205D0164CA04202D0164C2E
:10383000A04203D122F44074CA6822434C6922F0AA
:103840008002224302608A68C2620A688262A842D9
:1038500001D0984201D10969016301214161F0BDA4
:10386000000001400004004000080040000C00403F
:103870000004014000400140004401400048014074
:1038800000180040001C00400020004010B501F06E
:103890001F010123046A8B409C430462036A8A402F
:1038A0001343036210BD0000F0B5026A22F001026A
:1038B0000262026A43688469114E24F073050C6841
:1038C000104F2C4322F002058A682A43B04201D0EF
:1038D000B84205D122F00805CA682A4322F0040242
:1038E000B04201D0B84205D14D6923F440731D4365
:1038F0008B692B4343608461496841630262F0BD78
:103900000000014000040140F0B5026A22F01002FC
:103910000262026A436884690D6824F4E64444EA5A
:1039200005248D6822F0200242EA05120F4D104E48
:10393000A84201D0B04206D1CF6822F0800242EA0C
:10394000071222F04002A84201D0B04207D14D69CF
:1039500023F4406343EA85038D6943EA85034360AA
:103960008461496881630262F0BD0000000001408B
:1039700000040140F0B5026A22F480720262026A19
:103980004368C46922F4007224F073050C68124E77
:103990002C438D6842EA05220E4DA84201D0B04268
:1039A00006D1CF6822F4006242EA072222F4806244
:1039B000A84201D0B04207D14D6923F4405343EAF5
:1039C00005138D6943EA05134360C4614968C16307
:1039D0000262F0BD000001400004014030B5026AFF
:1039E00022F480520262036A4268C4690D6824F4BA
:1039F000E64444EA05248D6823F4005343EA053382
:103A0000084DA84202D0084DA84204D14D6922F4C5
:103A1000804242EA85124260C461496801640362DF
:103A200030BD0000000001400004014010B5806B73
:103A30000021C185C184FEF77DFB10BD01680C31FA
:103A400051E8002F22F4907241E80023002BF5D1B9
:103A50000168143151E8002F22F0010241E80023EF
:103A6000002BF5D1016B012909D101680C3151E816
:103A7000002F22F0100241E80023002BF5D1202175
:103A800080F83E1000210163704708B590F83E10A1
:103A9000222901D0022008BD81684FF48053994249
:103AA00001D1026922B1826A99421BD049B10AE070
:103AB0000268816A5268C2F308020A80816A891C1E
:103AC00008E0016971B10168496801F07F01117076
:103AD000816A491C8162C18D491E0904090CC18596
:103AE00003D019E001684968F1E70168CA6822F06B
:103AF0002002CA600168CA6822F48072CA60016844
:103B00004A6922F001024A61202180F83E10016BCF
:103B1000012903D0FEF71CFD002008BD0021016330
:103B200001680C3151E8002F22F0100241E8002317
:103B3000002BF5D101680A68D20602D50A684968E7
:103B40000091818DFEF7F5FAE6E7000070B50446B6
:103B500000680169E26821F4405111430161A168E4
:103B60002069E26901436069104301432068C2682B
:103B700049F20C639A430A43C26020684169A26912
:103B800021F440711143416131492068884202D0DB
:103B90003049884202D1FDF70BFC01E0FDF7F8FB4C
:103BA000E2690023192164253226B2F5004F6268CC
:103BB00028D0A0FB0101930F9200FCF703FB014604
:103BC000B0FBF5F06FF01802504301EB800006EBFC
:103BD0000010B0FBF5F000F0F002B1FBF5F002EBE5
:103BE0000012B1FBF5F06FF01803584301EB8000B1
:103BF00006EB0010B0FBF5F000F00F002168104458
:103C0000886070BDA0FB010192185B41FCF7DAFAF5
:103C10000146B0FBF5F00201B1FBF5F06FF01803BF
:103C2000584301EB800006EBC000B0FBF5F000F05C
:103C3000F80002EB4002B1FBF5F0584301EB8000C5
:103C400006EBC000B0FBF5F000F00700D6E700007F
:103C5000001001400014014081628285C28500216C
:103C60000164222280F83E2080F83C10016921B1D5
:103C70000168CA6842F48072CA6001684A6942F009
:103C800001024A610068C16841F02001C160002062
:103C900070472DE9F0411E46174688460446069DAA
:103CA00026E0681C24D025B1FDF738FA801BA84215
:103CB0001ED920680C3050E8001F21F4D07140E874
:103CC0000012002AF5D12068143050E8001F21F0BE
:103CD000010140E80012002AF5D1202084F83D00BF
:103CE00084F83E00002084F83C000320BDE8F08109
:103CF0002068016838EA010004D00020B842D0D022
:103D00000020F3E70120F9E70148FEF715BA0000AB
:103D1000BC0200200148FEF70FBA0000000300209B
:103D20000148FEF709BA000044030020FEE7000046
:103D30002DE9F05FF849096800297DD0DFF8DC83C0
:103D4000F849DFF8DC93DFF8E0A3DFF8E0B3D8F858
:103D500000E00A680024D9F800C0DAF80070F44DD9
:103D6000F44EDBF80010AEF102031E2874D017DC0D
:103D70000C2814D007DC07286FD2DFE800F0388D5C
:103D8000938D90B49000172868D004DC0E2863D07F
:103D90000F2862D165E018285FD01C285DD17EE035
:103DA000802873D010DC40280DD006DC1F287CD082
:103DB000202801D0302850D199E0502803D0602825
:103DC00001D0702849D195E0DFF868C3F128DCF80C
:103DD00000C05BD006DCC02858D0E02873D0F028A3
:103DE0003BD1A3E0F8286FD0FF287CD1CDE0BEF115
:103DF000030F04D0BDE8F05F0020FCF7E5BC2868A5
:103E000001281FD1CC4F3868012801D0C0B119E07A
:103E10000120C8F80000FEF7B9FCFCF74DFE2C604D
:103E2000C6483460C9F800400460C5483C6004607E
:103E3000C4480460C44800E00CE00460B648046074
:103E4000012038602868002804D1C820FCF7D4FC81
:103E500001202860BDE8F09F24E016E01CE02C6003
:103E6000F8E74E46BCF1000F3DD1062B3BD2DFE810
:103E700003F0272C3A313437FCF7DCFC4FF47A702E
:103E8000FCF7F8FD3068401C30602CE05CE00CE092
:103E90000020FCF799FC26E0FCF738FDDFE7FCF793
:103EA00069FDDCE7FCF74CFDD9E74E46BCF1000F9D
:103EB00019D1062B17D2DFE803F00308160D1013F3
:103EC000012AE5D1D8E718E041E0022AE0D0032A30
:103ED000DED1D1E7032FDBD1CEE70129D8D1CBE763
:103EE0000329D5D1C8E70020FCF76EFCB7E7FCF743
:103EF000F3FCB4E7FCF7D6FCB1E7BCF1000FF2D15C
:103F0000062BACD2DFE803F003063B3E0C0F032A7E
:103F1000E9D12AE0012AE6D127E0032FE3D124E00A
:103F20000329E0D121E00129DDD11EE0BCF1000F21
:103F3000D9D1062B93D2DFE803F00605222504032E
:103F4000F1E7EDE7E6E7E2E7FCF792FC87E7BCF193
:103F5000000FC8D1062B82D2DFE803F0060511144A
:103F60000403E0E7DCE7D5E7D1E7FCF763FC4FF4B7
:103F70007A70FCF73BFD3068401C30606FE7012F22
:103F8000F3D0CAE70229F0D0CAE70A27BEF10B0F27
:103F9000BFF466AFDFE80EF006072280B5FDFCFB3C
:103FA0000606FA0056E7FCF745FC5E480224006866
:103FB000012808D002280BD00328F3D140F24C404E
:103FC000FCF758FD07E040F24C40FCF70FFD02E023
:103FD000C820FCF711FCC8F800403BE7FCF76CFD7B
:103FE00050480068012804D002280BD0032813D1C0
:103FF00018E00120FEF72CFC54480168491C0160C0
:10400000012007E00220FEF723FC51480168491C0B
:1040100001600220FFF7B4FADAF8000058B1FFF7A8
:104020006DFA0AE00320FEF713FC4A480168491CB8
:1040300001600320EEE7FFF7DDFA404E306850B133
:104040003460DAF8000048B101280AD002280ED006
:10405000032817D111E0FFF72FFAEFE7FEF77EFBF9
:1040600010E00120FEF7EAFBFFF7FAF90AE0022070
:10407000FEF7E4FBFFF70AFA04E00320FEF7DEFB9D
:10408000FFF7D8F9FCF7D6FB4FF4FA60FCF7AEFC6B
:1040900001202860032029E1FCF7CCFB21480425FE
:1040A0000068012817D0022820D0032895D1DAF81B
:1040B000000000286ED0012817D002288DD140F2D0
:1040C0004C40FCF7D7FCFFF72FFA3460C9F80040EA
:1040D000C8F80050BEE6DAF80000E8B3012873D152
:1040E000B8E60328F6D1FFF71FFABDE0DAF80000C2
:1040F000ADE00228EED00328ECD1A1E0C8F80070B2
:10410000A8E6FCF7D9FCDAF80000012825D002283F
:104110002CD0032834D13EE0000000201400002001
:104120001800002004000020080000200C000020DF
:1041300048000020500000204C0000201C000020FF
:1041400034000020380000203C0000205C000020EB
:1041500060000020300000209FE00120FEF778FB87
:1041600081480168491C0160012007E00220FEF738
:104170006FFB7E480168491C01600220FFF700FACE
:10418000DBF8000080B1FFF7B9F90FE0C8E0B0E05C
:104190006EE03BE080E00320FEF75AFB74480168C4
:1041A000491C01600320E9E7FFF724FA714E3068EB
:1041B00058B13460DBF8000050B101280BD0022860
:1041C0000FD0032818D112E037E0FFF775F9EEE7BA
:1041D000FEF7C4FA10E00120FEF730FBFFF740F9CC
:1041E0000AE00220FEF72AFBFFF750F904E0032063
:1041F000FEF724FBFFF71EF9FCF71CFB4FF4FA60F7
:10420000FCF7F4FB0120286005206FE0FCF712FBAF
:10421000DAF80000062501280CD0022815D0032862
:104220007FF41EAEDBF80000B0B301281CD00228DA
:10423000F6D110E0DBF8000078B302287FF451AF2C
:1042400040F24C40FCF7D2FB3FE7DBF8000038B10E
:1042500001287FF44EAF40F24C40FCF70BFC34E7F2
:10426000C820FCF7C9FA49E7C820FCF7C5FA2CE7D3
:10427000FCF722FCDBF80000012804D002280DD056
:10428000032815D118E00120FEF7E2FA364801684C
:10429000491C0160012009E035E039E00220FEF709
:1042A000D7FA32480168491C01600220FFF768F91B
:1042B000FFF7A0F92F4E0AE00320FEF7C9FA2C48B9
:1042C0000168491C01600320F0E7FFF7F5F830684A
:1042D0000028FAD03460FEF741FAFCF7ABFA4FF44D
:1042E000FA60FCF783FB012028600720C8F8000073
:1042F000B0E5FCF79FFADBF80000012808D002289F
:104300000BD00328F4D140F24C40FCF76FFBF5E6EC
:1043100040F24C40FCF7AEFBF0E6FCF78BFAEDE622
:10432000FCF788FA4FF4FA60FCF760FB0120C8F84C
:10433000000034600F48C9F800402C6004600E484B
:1043400004600E4804600E48CAF80040CBF80040F4
:1043500004600C4804600C480460FCF7ADFBFEF7F9
:1043600015FA0A48046075E55C0000206000002032
:10437000300000201C0000204C0000200400002021
:1043800034000020380000203C0000200000002005
:104390000FB4054B10B503A9044A029800F0FCF8CD
:1043A00010BC5DF814FB0000A94C0008A800002018
:1043B00037B514460846064B6A46214600F0ECF82D
:1043C00004466946002000F06AFC20463EBD00001D
:1043D0009F4C00080907090E002804DB00F1E020CB
:1043E00080F80014704700F00F0000F1E02080F822
:1043F000141D704702E008C8121F08C1002AFAD134
:1044000070477047002001E001C1121F002AFBD154
:10441000704700002DE9FF5F82B00021DDE9043024
:10442000020DDDF840B0034318D044F61050A2F25C
:10443000FF3242431514119801281FD0A5EB0B0041
:10444000401C5FEA000A4FF000064E4FDFF838913B
:10445000B046504615D5CAF1000413E01198012466
:104460004AA3012801D16FEA0B010298119AC0E911
:104470000031C0E9024206B0BDE8F09FCBF1000078
:10448000DFE704460021404A491842EB0450CDE9D9
:10449000001012E0E00707D032463B46404649464E
:1044A000FBF7DAFE8046894632463B4610461946FF
:1044B000FBF7D2FE06460F466410002CEAD1DDE978
:1044C0000401DDE90023BAF1000F06DAFBF7C4FEB0
:1044D00042464B46FBF7C0FE05E0FCF792F8424629
:1044E0004B46FCF78EF804460E460022284BFCF79C
:1044F0000FF903D84FF0FF30014607E00022254BAB
:1045000020463146FBF7D6FFFCF7EAF8102409E015
:10451000002C0ADB0A220023FBF754FE039B3032F7
:104520001A55641E50EA0102F2D1641C039AC4F1C8
:1045300011031444119A012A03D0012208430DD11A
:104540000AE0084304D000204FF0110B119072E7ED
:10455000A3EB0B056D1E0DE05B4504DD4FF0000283
:1045600005F1010504E003DA4FF00002A5F10105B1
:10457000002AECD002981199C0E90231C0E9004547
:1045800079E70000000014400000F03F3000000018
:104590000000F0430000E03F2DE9FF4F95B09A4640
:1045A000884606460025EEE1252877D100242746D7
:1045B000F94A0121039400E0044316F8013F203B2F
:1045C00001FA03F01042F7D130782A2811D06FF0A9
:1045D0002F033078A0F13002092A16D8039A44F04C
:1045E000020402EB820203EB42021044761C0390A9
:1045F000EFE758F8042B0392002A03DA504244F400
:104600000054039044F00204761C30782E2816D112
:1046100016F8010F44F004042A280DD06FF02F0281
:104620003078A0F13003092B09D807EB870302EBA0
:104630004303C718761CF3E758F8047B761C3078E0
:104640006C280FD006DC4C2817D068280DD06A28BB
:1046500014D104E0742810D07A280FD10DE044F46E
:1046600000140AE044F4801401E044F44014727829
:10467000824202D104F58014761C761C30786628BC
:104680000BD013DC582877D009DC002875D04528DA
:10469000F6D04628F4D047281AD193E118E06328D1
:1046A00035D0642879D0652812D18BE1702873D079
:1046B00008DC6728F1D069286FD06E280DD06F28EC
:1046C00006D1ACE073282CD0752874D0782853D04C
:1046D0005246179990476D1C54E1C4F302500228CA
:1046E00009D003280DD0D8F8001004280DD00D6093
:1046F00008F1040846E1D8F80010EA17C1E90052B1
:10470000F6E7D8F800100D80F2E70D70F0E718F822
:10471000041B8DF8001000208DF80100EB460120ED
:1047200003E058F804BB4FF0FF3061074FF0000181
:1047300002D40DE009F101018946B9420FDA814541
:10474000F8DB1BF809100029F4D108E009F1010198
:1047500089468142FADB1BF809100029F6D103983B
:104760005346A0EB090721463846179A00F080FA15
:10477000284400EB090507E044E008E10DE01BF8E0
:10478000010B524617999047B9F10109F7D25346E8
:1047900021463846179AF2E039E00A21C4F3025262
:1047A0004FF0000B0091022A06D058F8040BC117F5
:1047B000032A09D00AE023E008F1070020F00702ED
:1047C000F2E80201904605E000B2C117042A01D1C7
:1047D00040B2C117002906DA0A460021404261EBC7
:1047E00002012D2202E0220504D52B228DF804209F
:1047F000012203E0E20701D02022F7E7914657E0CB
:104800000A2100E010214FF0000B00910BE0102175
:104810004FF0000B44F004040827009103E0082047
:104820004FF0000B0090C4F30252022A05D058F852
:10483000040B0021032A08D008E008F1070020F04B
:104840000702F2E80201904603E080B2042A00D198
:10485000C0B24FF0000922072AD53278702A07D05B
:10486000DDF800C08CF0100C5CEA0B0C05D00EE0FB
:1048700040228DF80420012208E050EA010306D00E
:1048800030238DF804308DF8052002229146009BDC
:1048900083F0080353EA0B030AD150EA010201D165
:1048A000620705D530228DF804204FF001097F1EE4
:1048B0003278582A04D039A20C920CAA02920BE04A
:1048C0003BA2F9E75B46009AFBF77CFC0C9B9B5CE8
:1048D000029A521E0292137050EA0102F2D102981B
:1048E00004A9081A00F1200B600702D524F48034D3
:1048F00000E001275F4502DDA7EB0B0000E0002090
:1049000000EB0B01009003984944401A0390E00328
:1049100006D453462146179A039800F0A9F9054496
:10492000002706E001A85246C05D179990476D1C0C
:104930007F1C4F45F6DBE0030CD553462146179A02
:10494000039800F095F9054404E030205246179989
:1049500090476D1C0099481E00900029F5DC08E086
:104960000298029952460078491C02911799904783
:104970006D1CBBF10001ABF1010BF1DC5BE100F060
:1049800065F90544761C307800287FF40DAE19B027
:104990002846BDE8F08F000009280100303132338D
:1049A000343536373839616263646566000000006B
:1049B0003031323334353637383941424344454655
:1049C00000000000600700D4062708F1070020F06F
:1049D0000700F0E80223804603F0004C5FEA0C0079
:1049E00001D097A009E0200501D596A005E0E007D9
:1049F00001D095A001E0AFF24C001390307823F085
:104A0000004365280CD006DC452809D046281DD077
:104A100047287FD13BE0662818D067287AD136E056
:104A20000021112F01DB112000E0781CCDE90001ED
:104A300004A90CA8FFF7EEFCDDE90D010C9A4FF07C
:104A4000000B07F10109109200914EE04FF0004079
:104A50000097CDE9011004A90CA8FFF7DBFCDDE904
:104A60000D020C9B0F994FF0000B91461093009292
:104A700011B9791C00EB0109B7EB090003D4C0F1AF
:104A8000FF3B07F10109A9EB0700019042E0012F6C
:104A900000DA01270021112F01DD112000E0384646
:104AA000CDE9000104A90CA8FFF7B4FCDDE90D0174
:104AB0000C9A00914FF0000BB946109221070FD4C9
:104AC000009A4A4503DA914601E0A9F10109B9F1DA
:104AD000010F05DD109AA9F10101515C3029F4D0D4
:104AE000B84202DA10F1040F03DA0121CDE9011016
:104AF00010E0002803DC8344A9EB000102E0411C24
:104B0000494500DD8946A0EB0B00401C01904FF0A9
:104B100000400290200705D40198484502DB4FF081
:104B2000FF30019000208DF84B0002980DF14B07EB
:104B3000B0F1004F25D002200C902B200D90029850
:104B400000280CDA404202902D200D9007E00A2147
:104B50000298FBF71DFC3031029007F8011D0C99FB
:104B6000481E0C900029F2DC02980028EFD1791E33
:104B70000D980870307800F0200040F0450007F8EC
:104B8000020D11A8C01BC01D02901398007800B13F
:104B9000012000EB0901019801EBE071029801444A
:104BA0000398401A401E0390E00306D45346214662
:104BB000179A039800F05CF805441398007818B130
:104BC0005246179990476D1CE00323D55346214662
:104BD000179A039800F04CF805441BE0BBF1000F56
:104BE00007DB0098584504DD1098179910F80B0062
:104BF00001E0179930205246904701980BF1010BC4
:104C0000401E05F10105019004D12E20524617994E
:104C100090476D1CB9F10001A9F10109DEDC05E046
:104C200017F8010B5246179990476D1C0299481EC0
:104C300002900029F4DC53462146179A03989EE619
:104C40002D0000002B000000200000002DE9F041A5
:104C5000044600251E461746880404D405E039465C
:104C60002020B0476D1C641EF9D52846BDE8F081B0
:104C70002DE9F041044600251E469046C80301D5A3
:104C8000302700E02027880404D505E04146384657
:104C9000B0476D1C641EF9D52846BDE8F0810A684E
:104CA000531C0B601070704713B54FF6FF73012251
:104CB00069460248FDF7F8FC00981CBDBC020020C4
:104CC0002DED028BFCF738FAFEF70EFDFDF742FEE4
:104CD000FDF72AFEFDF762FFFEF76CF8FEF786F897
:104CE000FEF7A0F8FEF72EF8FDF73CFFFDF7BEFF3C
:104CF000FDF7F2FFFDF71CFF3C21FE48FCF724FF07
:104D00003C21FD48FCF720FFFEF74CF9FEF70EFAB8
:104D10000122FA49FA48FDF705FC0122F949FA484F
:104D2000FDF700FC0122F949F948FDF7FBFBFDF70F
:104D30002DFD0021F748FDF71BF90421F548FDF78B
:104D400017F90821F348FDF713F90C21F148FDF795
:104D50000FF9F148FCF700FEF048FCF7FDFD9FED70
:104D6000F08B40F67A5B40F24C4540F2DC564FF453
:104D7000966A40F21A474FF000090124DFF8A88331
:104D8000FEF74EFCFDF70EFDFEF74AFAD8F81000CC
:104D9000FEF7CEFFD8F82000012805D1FEF706FB6C
:104DA00088ED100BC8F8209098ED100B53EC182BE1
:104DB00051EC100BFBF7D4FA75D2D8F8001001298A
:104DC00071D1D8F8140002286ED1D8F80400012857
:104DD00020D12846FBF72CFE3046FBF70DFD504650
:104DE000FBF7E2FD5846FBF707FD2846FBF7DCFD25
:104DF00040F21450FBF700FD3846FBF719FE304631
:104E0000FBF7FAFC3846FBF713FED8F81810491CDC
:104E1000C8F81810D8F80410032964D1D8F8340061
:104E2000002860D12846FBF703FE3046FBF7E4FC80
:104E30005046FBF7B9FD5846FBF7DEFC2846FBF76A
:104E4000B3FD40F21450FBF7D7FC3846FBF7F0FDFA
:104E5000FBF732FE03210846C8F81410FDF7F8FCF2
:104E6000D8F83000401CC8F830000320FEF788FB5B
:104E7000D8F8080010B1FEF741FB04E0FEF7BAFBDA
:104E800001E0FEF719FBD8F81C000028F9D0C8F89B
:104E90001C90D8F8080040B1012809D002280DD094
:104EA000032816D110E001E21DE0FDF757FC10E0E9
:104EB0000120FDF7C3FCFEF7D3FA0AE00220FDF75C
:104EC000BDFCFEF7E3FA04E00320FDF7B7FCFEF7B4
:104ED000B1FA4FF47A70FBF78FFC4FF4FA60FBF7EE
:104EE00063FDC8F83440D8F81400032819D1D8F865
:104EF00004000328284619D0FBF79AFD3046FBF73B
:104F00007BFC5046FBF750FD4FF44860FBF774FC08
:104F10002846FBF749FD5046FBF76EFC3846FBF789
:104F200087FDD8F81400042824D0AFE0FBF780FDFB
:104F30003046FBF761FC2846FBF736FD40F648504B
:104F4000FBF75AFC2846FBF72FFD3046FBF754FCD5
:104F50003846FBF76DFD1420FBF7D4FF2846FBF71E
:104F60004BFC3846FBF764FDD8F81810491CC8F80C
:104F70001810D6E7D8F80800012820D12846FBF7FA
:104F800057FD3046FBF738FC5046FBF70DFD584601
:104F9000FBF732FC2846FBF707FD40F21450FBF705
:104FA0002BFC3846FBF744FD3046FBF725FC384622
:104FB000FBF73EFDD8F81810491CC8F81810D8F8AF
:104FC0000810032962D1D8F8380070BB2846FBF7D7
:104FD0002FFD3046FBF710FC5046FBF7E5FC58462A
:104FE000FBF70AFC2846FBF7DFFC40F21450FBF706
:104FF00003FC3846FBF71CFDFBF75EFD0521032093
:10500000C8F81410FDF724FCD8F83000401CC8F88C
:1050100030000320FEF7B4FAD8F80C0010B1FEF708
:105020006DFA05E0FEF7E6FA02E02FE0FEF744FA3B
:10503000D8F81C000028F9D0C8F81C90D8F80C004B
:1050400030B1012807D002280BD0032814D10EE07C
:10505000FDF784FB10E00120FDF7F0FBFEF700FAFE
:105060000AE00220FDF7EAFBFEF710FA04E0032055
:10507000FDF7E4FBFEF7DEF94FF47A70FBF7BCFBBB
:105080004FF4FA60FBF790FCC8F83840D8F81400E9
:10509000052819D1D8F808000328284619D0FBF7AD
:1050A000C7FC3046FBF7A8FB5046FBF77DFC4FF4EE
:1050B0004860FBF7A1FB2846FBF776FC5046FBF760
:1050C0009BFB3846FBF7B4FCD8F81400062841D007
:1050D000CDE0FBF7ADFC3046FBF78EFB2846FBF737
:1050E00063FC40F64850FBF787FB2846FBF75CFC67
:1050F00030461BE03C010020840100209C00002081
:10510000BC0200209E000020000300209D00002023
:1051100044030020AC000020CC0100201402002039
:10512000000000000000104000000020FBF764FBBE
:105130003846FBF77DFC1420FBF7E4FE2846FBF71E
:105140005BFB3846FBF774FCD8F81810491CC8F80C
:105150001810B9E7D8F80C00012820D12846FBF731
:1051600067FC3046FBF748FB5046FBF71DFC5846F2
:10517000FBF742FB2846FBF717FC40F21450FBF705
:105180003BFB3846FBF754FC3046FBF735FB384613
:10519000FBF74EFCD8F81810491CC8F81810D8F8BE
:1051A0000C10032963D1D8F83C0078BB2846FBF7E4
:1051B0003FFC3046FBF720FB5046FBF7F5FB4FF476
:1051C0004860FBF719FB2846FBF7EEFB40F2145052
:1051D000FBF712FB3846FBF72BFCFBF76DFC0721B6
:1051E0000320C8F81410FDF733FBD8F83000401C3A
:1051F000C8F830000320FEF7C3F9D8F80C0010B14E
:10520000FEF77CF905E0FEF7F5F902E02FE0FEF786
:1052100053F9D8F81C000028F9D0C8F81C90D8F829
:105220000C0030B1012807D002280BD0032814D17C
:105230000EE0FDF793FA10E00120FDF7FFFAFEF70C
:105240000FF90AE00220FDF7F9FAFEF71FF904E072
:105250000320FDF7F3FAFEF7EDF84FF47A70FBF751
:10526000CBFA4FF4FA60FBF79FFBC8F83C40D8F844
:10527000141007291AD1D8F80C00032828462CD07E
:10528000FBF7D6FB3046FBF7B7FA5046FBF78CFB33
:105290004FF44860FBF7B0FA2846FBF785FB40F275
:1052A000E240FBF7A9FA3846FBF7C2FBFEF738F8F5
:1052B00004287FF465AD4046D0E909128A4262DCD9
:1052C000C0F82C9041690729BFF45AADDFE801F01E
:1052D00004293E485158580052E5FBF7A9FB3046D7
:1052E000FBF78AFA2846FBF75FFB40F64850FBF7CE
:1052F00083FA2846FBF758FB3046FBF77DFA384621
:10530000FBF796FB1420FBF7FDFD2846FBF774FA2C
:105310003846FBF78DFBD8F81810491CC8F8181050
:10532000C4E7D8F804001DE00120FDF787FAFEF776
:1053300097F812E00220FDF781FAFEF7A7F80CE0DB
:105340000320FDF77BFAFEF775F806E0D8F80400B5
:1053500011E00328C0D1FDF771FAC8F800400FE54D
:10536000D8F808000128DFD00228E3D00328B3D101
:10537000E6E7D8F808000128EDD00228E9D1EAE7ED
:10538000D8F80C00EEE74FF400510248FBF7B9FEE5
:10539000F6E40000000802400FB4094810B503AA63
:1053A0000299FFF705F80648FAF74FFF82B24FF06F
:1053B000FF3303490348FDF777F910BC5DF814FB90
:1053C0007C0A0020000300200FB4094810B503AA8E
:1053D0000299FEF7EDFF0648FAF737FF82B24FF069
:1053E000FF3303490348FDF75FF910BC5DF814FB78
:1053F0005009002044030020000610160006101675
:105400000000000000000000010203040607080974
:1054100000000000010203043854000800000020CE
:10542000AC000000F4430008E4540008AC00002085
:10543000FC0E000004440008000000000000000012
:10544000000000000000000000000000010000005B
:10545000000000000000000000000000000000004C
:10546000000000000000000000000000000000003C
:10547000000000000000000000000000000000002C
:10548000000000000000000000000000000000001C
:10549000000000000000000000000000000000000C
:1054A00000000000000000000000000000000000FC
:1054B0000100000010000000000000000024F400C3
:1054C0000A000000020000000400000006000000C6
:1054D00014050000000000000000000000000000B3
:0454E00000000000C8
:040000050800018965
:00000001FF
